:020000040800F2
:100000003007002089010008C3160008A915000860
:10001000C1160008650300087F19000800000000F1
:10002000000000000000000000000000C7160008EB
:100030007503000800000000C5160008C916000876
:10004000A3010008A3010008A3010008A301000800
:10005000A3010008A3010008A3010008A3010008F0
:10006000A3010008A3010008A3010008A3010008E0
:1000700069030008A3010008A3010008A301000808
:10008000A3010008A3010008A3010008A3010008C0
:10009000A3010008A3010008A3010008A3010008B0
:1000A000A3010008A3010008A3010008A3010008A0
:1000B000A3010008A3010008A3010008A301000890
:1000C000A3010008A3010008A3010008A301000880
:1000D000A3010008A3010008A3010008A301000870
:1000E000A3010008A3010008A301000800F002F822
:1000F00000F03AF80AA090E8000C82448344AAF188
:100100000107DA4501D100F02FF8AFF2090EBAE885
:100110000F0013F0010F18BFFB1A43F0010318473B
:100120001419000034190000103A24BF78C878C1AF
:10013000FAD8520724BF30C830C144BF04680C60ED
:10014000704700000023002400250026103A28BF35
:1001500078C1FBD8520728BF30C148BF0B60704739
:100160001FB51FBD10B510BD00F058F81146FFF7C0
:10017000F7FF01F015FC00F076F803B4FFF7F2FF8B
:1001800003BC00F07DF8000009488047094800479B
:10019000FEE7FEE7FEE7FEE7FEE7FEE7FEE7FEE737
:1001A000FEE7FEE704480549054A064B7047000094
:1001B00045170008ED00000830010020300700203E
:1001C00030030020300300204FF0000200B513463A
:1001D00094469646203922BFA0E80C50A0E80C5067
:1001E000B1F12001BFF4F7AF090728BFA0E80C5018
:1001F00048BF0CC05DF804EB890028BF40F8042B11
:1002000008BF704748BF20F8022B11F0804F18BF7D
:1002100000F8012B7047704770477047754600F033
:100220002BF8AE4605006946534620F00700854688
:1002300018B020B5FFF7B6FFBDE820404FF000062C
:100240004FF000074FF000084FF0000B21F00701BE
:10025000AC46ACE8C009ACE8C009ACE8C009ACE801
:10026000C0098D46704710B50446AFF300802046A4
:10027000BDE81040FFF781BF00487047D000002064
:1002800001491820ABBEFEE72600020070470000BF
:1002900070B5044600688168C943C90717D18168F1
:1002A00021F00101816000F0CDFB05460AE000BFAE
:1002B00000F0C8FB401B022804D920688068C043B6
:1002C000C00706D020688068C043C007F0D0002077
:1002D00070BDA06A40F01000A062E06A40F001002A
:1002E000E062012070BD0000F8B5002604460096CB
:1002F00000688168C943C9072DD0816841F00101B8
:100300008160164816490068B0FBF1F000E0401E1D
:1003100000900028FBD100F095FB054616E000BFD9
:1003200000F090FB401B022810D920688068C04371
:10033000C0070BD0A06A40F01000A062E06A40F055
:100340000100E06284F824600120F8BD2068806824
:10035000C043C007E4D10020F8BD00001000002019
:1003600040420F00FEE70000014800F0A3B9000082
:100370008C000020704772B6FEE70000F8B500243C
:10038000009490F824202546012A12D0012280F8FA
:1003900024204A681F23072A0DD20668776B521E55
:1003A00002EB820293409F430B6893401F437763A5
:1003B00019E00220F8BD06680D2A0AD2376BD21F59
:1003C00002EB820293409F430B6893401F433763C5
:1003D00009E0F76A0D3A02EB820293409F430B68F3
:1003E00093401F43F7620A68072306680A2A0AD364
:1003F000F7680A3A02EB420293409F438B689340AE
:100400001F43F76008E0376902EB420293409F43C5
:100410008B6893401F4337610A68102A01D0112A64
:1004200020D1124B02689A4217D193681B0219D44B
:10043000936843F4000393600968102912D10C49B2
:100440000C4A0968B1FBF2F101EB8101490000E0BF
:10045000491E00910029FBD104E0816A41F020018E
:100460008162012480F824502046F8BD0024014018
:100470001000002040420F000068C06C7047000070
:100480002DE9F0414FF0000704003D467ED0A06A00
:10049000002628B9E66284F82460204600F07EF841
:1004A0002046FFF7F5FEA16AC90600D420B1A06A74
:1004B00040F01000A06269E0A16A21F4885141F087
:1004C0000201A1626268E169237B0A4347EA4301B2
:1004D0000A43A1684FF48077B94209D0012907D0B7
:1004E0005FF0000194F814C0BCF1010F02D00AE0E3
:1004F0003946F7E7F3B1A36A43F02003A362E36A46
:1005000043F00103E3622368D3F804C02CF4694C80
:100510004CEA010CC3F804C021688B68DFF870C096
:1005200003EA0C0313438B60A168B9420BD0012985
:1005300009D00CE0DFF85CC0A3690CEB43330B433C
:1005400043F40061DFE7218A0D05A5F580152168D8
:10055000CB6A23F470032B43CB62216889680E4B6E
:100560001940914208D1E662A16A21F0020141F0EE
:100570000101A162BDE8F081A06A20F0020040F014
:100580001000A062E06A40F00100E0620120F1E7A3
:10059000FDF7E1FF00E0FFFFFE0E1FFF00B585B095
:1005A0000021009101910291039100680E49884257
:1005B00018D10E48816941F400718161816901F4AB
:1005C00000710491816941F004018161806969468B
:1005D00000F00400049001200090032001900448E2
:1005E00000F040F905B000BD0024014000100240B9
:1005F0000008014070B5044690F8240001280DD091
:10060000012084F824002046FFF76EFE02004FF020
:10061000000005D084F82400104670BD022070BD93
:10062000A16A40F20123994341F48071A1621F4DF8
:1006300023681F49AB4218D10E6816F4702F14D0EE
:10064000A66A46F48016A6620E68760505D5A66AE7
:1006500026F4005646F48056A662A66AF6040AD529
:10066000E66A26F00606E66206E0A66A26F480162A
:10067000A6625E68E9E7E06284F824006FF0020099
:10068000186020688368C3F34243072B05D1A84252
:1006900008D1096811F4702F04D0816841F48011E9
:1006A0008160B9E7816841F4A001F9E700280140C1
:1006B000042401402DE9F05FC16B0C6801680B68F0
:1006C000D0F840C0042202FA0CF2494DDFF824A110
:1006D000494E4A4FDFF828B1DFF828E122422CD0FA
:1006E0005A072AD50A68920603D40A6822F004023F
:1006F0000A600168A94201D1042219E0514501D1E3
:10070000402215E0B14202D14FF4806210E0B942BC
:1007100002D14FF480420BE0594502D14FF48022C0
:1007200006E0714502D14FF4800201E04FF0806293
:100730002F4908394A60C16A3BE04FF0020808FAC5
:100740000CF818EA040F4FF000094FF0010235D001
:100750005FEA837832D50B689B0605D40B6823F0DB
:100760000A030B6080F821200168A94201D102220E
:1007700019E0514501D1202215E0B14202D14FF4D8
:10078000007210E0B94202D14FF400520BE059451B
:1007900002D14FF4003206E0714502D14FF400124D
:1007A00001E04FF00072124908394A6080F8209049
:1007B000816A00291AD0BDE8F05F0847082505FACC
:1007C0000CF5254212D01B0710D50B6823F00E0341
:1007D0000B6090F84010C36B02FA01F1596082631C
:1007E00080F8212080F82090016BE2E7BDE8F09FBF
:1007F000080002401C000240300002404400024059
:10080000580002406C00024030B528B308C81349B4
:1008100014221944B1FBF2F18900C16310498163CC
:10082000022141771A6843F6F0718A43D0E9001437
:100830002143D0E902452C43214304692143446903
:10084000214384692143114319600021416301223E
:1008500042770177084630BD012030BDF8FFFDBF6B
:10086000000002402DE9F84FDFF8B891002409F1AB
:10087000040A0AF1040B23460F270BF1040EC9E00A
:100880000125A5402A40AA427DD1674ED1F804C077
:10089000ACEB0608B44532D014DCBCF1030F3AD0FF
:1008A00009DCBCF1000F2AD0BCF1010F1CD0BCF157
:1008B000020F31D11DE0BCF1110F17D0BCF1120FA6
:1008C0002AD119E0B8F5881F19D006DCB8F5803FA9
:1008D00015D0B8F5801F1FD111E0B8F5001F0ED05C
:1008E000B8F5041F18D10AE0CB6815E0CB681B1DD2
:1008F00012E0CB6808330FE0CB680C330CE08B6858
:100900002BB1012B4FF0080303D0456104E0042311
:1009100002E0056100E00023FF2A01D8064601E05D
:1009200000F104064FEA840501D9A5F12005D6F8A7
:10093000008007FA05FC28EA0C0803FA05F548EAE6
:100940000508C6F800804D68ED0062D5374DAE69E8
:1009500046F00106AE61AD6924F0030605F001051D
:100960000095334D06EB050CDCF80850A607360F52
:1009700007FA06F825EA0805DFF8B880404503D1F4
:100980004FF0000817E044E0DFF8AC80404502D1AA
:100990004FF001080FE0DFF8A480404502D14FF08E
:1009A000020808E0DFF89880404502D14FF00308C4
:1009B00001E04FF0040808FA06F848EA0508CCF808
:1009C00008804D68D9F80060ED034D4601D5164307
:1009D00000E096432E604D68DAF80060AD0355469E
:1009E00001D5164300E096432E604D68DBF80060A9
:1009F000ED025D4601D5164300E096432E604D683A
:100A0000DEF80060AD02754601D5164300E096435E
:100A10002E60641C0D682A46E5407FF431AFBDE8C6
:100A2000F88F000000040140000011100010024087
:100A30000000014000080140000C0140001001408E
:100A40000014014001488068704700000400002045
:100A500002488168027811448160704704000020D8
:100A6000074810B5016841F010010160032000F053
:100A700075F80F2000F006F800F024F8002010BDF3
:100A80000020024070B50D4D04464FF47A7128786D
:100A9000B1FBF0F00A490968B1FBF0F000F042FB4D
:100AA00048B9102C07D200222146501E00F036F81B
:100AB00000206C6070BD012070BD000004000020AB
:100AC000100000200C4808B5816941F001018161E6
:100AD000816901F001010091C16941F08051C1615A
:100AE000C06900F0805000900448416821F0E06146
:100AF00041F00071416008BD00100240000001405B
:100B0000002809DB00F01F0201219140400980000C
:100B100000F1E020C0F8001170470000F0B40E4B67
:100B20001B680C46C3F30223C3F10705042D00D94B
:100B30000425191D072901D2002300E0DB1E012630
:100B400006FA05F1491E214099409E40761E164046
:100B50003143F0BC00F014BF0CED00E0064900F09A
:100B6000070208684FF6FF03184040EA0220034AD4
:100B700010430860704700000CED00E00000FA052B
:100B80002DE9F84305460078354CC00754D0E0699C
:100B90000026C00008D4E06940F08050E061E069C0
:100BA000012600F0805000902E480168C90512D43B
:100BB0000168804641F480710160FFF743FF0746FA
:100BC00005E000BFFFF73EFFC01B642823D8D8F81C
:100BD0000000C005F6D5206A10F4407021D0A98825
:100BE00001F4407181421CD0206A1F49012220F487
:100BF00040700A6000220A602062C00711D0FFF72F
:100C000021FF074641F2883808E000BFFFF71AFFCE
:100C1000C11B414502D90320BDE8F883206A800743
:100C2000F4D5206A696820F44070084320621EB140
:100C3000E06920F08050E0612878800705D5606881
:100C4000A96820F44040084360602878C00605D5B4
:100C50006068E96820F48000084360600020DBE7FA
:100C60000010024000700040400442422DE9F0476D
:100C70000F46050061D0434E306800F00700B842CF
:100C800009D2306820F0070038433060306800F047
:100C90000700B84251D128683B4C810712D5400764
:100CA00003D5606840F4E06060602878000703D5F1
:100CB000606840F4605060606068A96820F0F000EF
:100CC000084360602878C00728D06868012810D0E1
:100CD0002168022810D0890700292EDA616821F0E6
:100CE000030101436160FFF7ADFE804641F28839A0
:100CF0000DE021688903EFE78901EDE7FFF7A2FE28
:100D0000A0EB0801494502D90320BDE8F0876068DF
:100D1000696800F00C00B0EB810FEFD1306800F093
:100D20000700B8420BD9306820F007003843306024
:100D3000306800F00700B84201D00120E5E72878CC
:100D4000400705D56068E96820F4E060084360600A
:100D50002878000706D56068296920F4605040EAC9
:100D6000C100606000F018F86168084AC1F303111F
:100D7000515CC8400649086006480068FFF782FEDB
:100D80000020C2E70020024000100240241A0008A0
:100D9000100000200800002012A185B00FC98DE8C6
:100DA0000F0014A0144A006804905168134801F021
:100DB0000C03042B10D0082B0ED1C1F38343C903BD
:100DC0001DF803000AD5516804AAC1F34041515CE3
:100DD0000A4A5043B0FBF1F005B070470849484358
:100DE000FAE7000002030405060708090A0B0C0DC8
:100DF0000E0F1010010200000010024000127A00D5
:100E000000093D002DE9F84F040070D02078C04D56
:100E1000C00749D06868C0F38100012807D068681E
:100E2000C0F38100022809D16868C00306D528688C
:100E3000800339D560680028E7D035E06068B0F5F8
:100E4000803F0BD010B1B0F5A02F11D0286820F44E
:100E500080302860286820F4802002E0286840F470
:100E600080302860606890B1FFF7ECFD06460AE02C
:100E7000286840F480202860F0E700BFFFF7E2FD1B
:100E8000801B642873D828688003F7D50CE0FFF72F
:100E9000D9FD064605E000BFFFF7D4FD801B64289E
:100EA000F0D828688003F7D420789A4E80074FF056
:100EB00001094FF0000839D5686810F00C0F07D011
:100EC0006868C0F38100022809D16868C00306D4AD
:100ED0002868800714D52069012808D110E020690E
:100EE000B0B1C6F80090FFF7ADFD074605E00AE196
:100EF000FFF7A8FDC01B0228C4D828688007F7D5D3
:100F00002868616920F0F80040EAC10028600DE01F
:100F1000C6F80080FFF796FD074604E0FFF792FD54
:100F2000C01B022823D828688007F7D42078000740
:100F30002CD57948A169D9B1C0F80090FFF782FD9E
:100F4000074604E0FFF77EFDC01B02280FD8686A41
:100F50008007F7D571484FF4FA510068B0FBF1F003
:100F6000009000BF0098411E0091FAD20EE080E090
:100F7000C0F80080FFF766FD074604E0FFF762FD5A
:100F8000C01B022875D8686A8007F7D4207840070C
:100F900060D5E8690027C00008D4E86940F08050B7
:100FA000E861E869012700F0805000905C48016822
:100FB000C90513D40168834641F480710160FFF7CD
:100FC00041FD824606E000BFFFF73CFDA0EB0A00B2
:100FD00064284ED8DBF80000C005F5D5E06801288C
:100FE0000AD008B1052813D0286A20F00100286231
:100FF000286A20F0040002E0286A40F0010028621C
:10100000E06841F2883B98B1FFF71CFD82460BE097
:10101000286A40F004002862EEE700BFFFF712FDE7
:10102000A0EB0A0159455AD8286A8007F6D50CE08A
:10103000FFF708FD824605E0FFF704FDA0EB0A017B
:1010400059454CD8286A8007F6D41FB1E86920F0CA
:101050008050E861E06988B36968C1F381010229C1
:1010600044D00228C6F8608004D0FFF7EBFC0446A9
:1010700038E034E0FFF7E6FC074604E0FFF7E2FC67
:10108000C01B02282BD828688001F7D4206AB0F54D
:10109000803F05D16868A16820F40030084368608B
:1010A000D4E908010843696821F4741108436860B1
:1010B000C6F86090FFF7C6FC044606E025E000BFD6
:1010C000FFF7C0FC001B022809D828688001F7D56B
:1010D0001BE000BFFFF7B6FC001B022802D903206B
:1010E000BDE8F88F28688001F4D40EE00128F7D01D
:1010F0006868226A00F48031914204D1616A00F488
:101100007010884201D00120EAE70020E8E70000E3
:1011100000100240000042428004424210000020C1
:101120000070004010B5401EB0F1807F01D3012057
:1011300010BD4FF0E02460610F21601700F020FC2B
:101140000020A06107202061002010BD10B590F89C
:101150003C20012A22D0012280F83C20CA688C68F9
:1011600022F4407222434C6822F4806222430C68CD
:1011700022F4006222430C6922F4805222434C691B
:1011800022F400522243C969002322F480420A4318
:1011900001684A6480F83C30002010BD022010BD78
:1011A00070B590F83C20012A26D0012480F83C40FC
:1011B000022280F83D2003685A689D6822F070067C
:1011C0000A6832435A600D4B02689A4208D0B2F165
:1011D000804F05D00A4B9A4202D00A4B9A4204D162
:1011E000496825F080031943916080F83D40002153
:1011F00080F83C10084670BD022070BD002C0140F4
:10120000000400400008004010B5040003D094F82A
:101210003D0010B107E0012010BD002084F83C0023
:10122000204600F01FF8022084F83D00211D2068B0
:1012300000F08AFA012084F8460084F83E0084F821
:101240003F0084F8400084F8410084F8420084F8AC
:10125000430084F8440084F8450084F83D000020F1
:1012600010BD000038B505460068124988421FD1FC
:101270001148816941F4006181618069104C00F47A
:10128000006000900D4820601020606000208021E8
:10129000C4E90201490021618900C4E90510E06147
:1012A0002046FFF7B1FA08B1FFF765F86C62656296
:1012B00038BD0000002C0140001002401C0002401C
:1012C0008C00002070B5044690F83C00012817D02F
:1012D000012584F83C50022084F83D002068826893
:1012E00022F0770222F47F4282600868502830D0D2
:1012F0000DDC20284DD005DC98B310283BD148E008
:10130000022070BD302844D0402834D139E0602814
:1013100028D0702806D0B0F5805F2CD0B0F5005FE3
:1013200029D10AE0CB68D1E90121206800F04FFA09
:101330002068816841F0770109E0CB68D1E901219B
:10134000206800F044FA2068816841F4804181609F
:1013500011E0CA684968206800F0EEFA5021206860
:1013600007E016E0CA684968206800F0F6FA6021D4
:10137000206800F036FA84F83D50002084F83C00E4
:1013800070BDCA684968206800F0D6FA402120681C
:10139000EFE7226801461046EBE7000000B585B094
:1013A0000021009101910291039100680B4988424C
:1013B00012D10B48816941F004018161806969465D
:1013C00000F0040004904FF480700090022001901F
:1013D00003900448FFF746FA05B000BD002C014019
:1013E000001002400008014070B5044690F83C002F
:1013F0000D4601280AD0012084F83C0042B1042A9D
:1014000018D0082A2AD00C2A4DD139E0022070BD0C
:10141000206800F0EFF92068816941F008018161DE
:101420002068816921F004018161206881692A694D
:10143000114311E0206800F005FA2068816941F449
:10144000006181612068816921F480618161206887
:1014500081692A6941EA0221816124E0206800F063
:101460001DFA2068C16941F00801C1612068C169A5
:1014700021F00401C1612068C1692A69114311E0AA
:10148000206800F037FA2068C16941F40061C16149
:101490002068C16921F48061C1612068C1692A693D
:1014A00041EA0221C161002084F83C0070BD10B502
:1014B000040003D094F83D0010B107E0012010BDF6
:1014C000002084F83C00204600F01EF8022084F83A
:1014D0003D00211D206800F037F9012084F8460006
:1014E00084F83E0084F83F0084F8400084F841000E
:1014F00084F8420084F8430084F8440084F84500EE
:1015000084F83D00002010BD7047000010B504466F
:10151000022249B104290ED0082913D094F84100C1
:10152000012816D0012010BD94F83E000128F9D101
:1015300084F83E200FE094F83F000128F2D184F8AF
:101540003F2008E094F840000128EBD184F84020C7
:1015500001E084F841200122206800F02BF90F49B6
:101560002068884203D1426C42F400424264206801
:10157000884208D0B0F1804F05D00949884202D096
:101580000849884204D1816801F00701062903D087
:10159000016841F001010160002010BD002C0140F4
:1015A0000004004000080040FEE700003EB50024B3
:1015B00010480094019402940D4984600160012553
:1015C0000573047505614FF460214460C161FEF745
:1015D00057FF08B172B6FEE7CDE9004569460548F8
:1015E0000294FEF7CBFE002801D072B6FEE73EBDA6
:1015F000002401401400002010B596B000240F9480
:1016000010941194129413941C2108A81494FEF7BA
:10161000DBFD20216846FEF7D7FD284826490160FA
:101620004721C0E9011440F6C371C0E903144461C5
:101630008461FFF7E9FD08B172B6FEE74FF4805010
:101640000F900FA91D48FFF73DFE08B172B6FEE7E7
:101650001A48FFF72CFF08B172B6FEE7139413A9DE
:1016600016481494FFF79CFD08B172B6FEE760209F
:10167000CDE908040A940B940C940D94002208A957
:101680000E480E94FFF7B0FE08B172B6FEE7009464
:101690004FF40050CDE9044002940194039469464C
:1016A00006480794FFF752FD08B172B6FEE70348FB
:1016B000FFF774FE16B010BD002C0140440000205E
:1016C000FEE7FEE770477047FFF7C2B930B593B049
:1016D00028216846FEF778FD14210AA8FEF774FD5C
:1016E000002501200F9510951195010412958DE8A4
:1016F000230004904FF4E010CDE908100224079471
:101700006846FFF77FFB08B172B6FEE70AA90F2013
:1017100081E831004FF48060CDE90D0502210AA86F
:10172000FFF7A4FA08B172B6FEE74FF4004011903B
:101730000F940FA8FFF724FA002801D072B6FEE735
:1017400013B030BD70470000F0B50268164B174C5F
:10175000174D4FF08047984205D0B84203D0A042C1
:1017600001D0A84203D122F070064A683243984261
:1017700005D0B84203D0A04201D0A84203D122F440
:101780004074CA6822434C6922F0800222430260FE
:101790008A68C2620A688262984201D1096901635B
:1017A00001214161F0BD0000002C01400004004017
:1017B0000008004010B501F01F030121046A9940A0
:1017C0008C430462016A9A401143016210BD10B556
:1017D000846842EA032224F47F440A43224382605D
:1017E00010BD826822F070020A4342F00701816056
:1017F0007047000030B5026A22F001020262026AFC
:101800004368846924F073050C682C4322F00205B8
:101810008A682A430A4DA8420BD122F00805CA68FB
:1018200023F440732A434D6922F004021D438B695F
:101830002B434360846149684163026230BD00000C
:10184000002C014030B5026A22F010020262026AE6
:10185000436884690D6824F4E64444EA05248D68ED
:1018600022F0200242EA05120B4DA8420ED1CD68AB
:1018700022F0800242EA05124D6923F4406343EAF4
:1018800085038D6922F0400243EA85034360846149
:1018900049688163026230BD002C014030B5026AA4
:1018A00022F480720262036A4268C46923F40073FE
:1018B00024F073050C682C438D6843EA05230C4D16
:1018C000A8420ED1CD6823F4006343EA05234D6995
:1018D00022F4405242EA05128D6923F4806342EA01
:1018E00005124260C4614968C163036230BD0000F3
:1018F000002C014030B5026A22F480520262046A70
:101900004268C3690D6823F4E64343EA05238D6802
:1019100024F4005444EA0534064DA84204D14D692C
:1019200022F4804242EA85124260C3614968016440
:10193000046230BD002C014010B5036A046A24F033
:1019400001040462846924F0F00444EA021423F0E0
:101950000A020A438461026210BD10B5036A23F0D3
:10196000100303628369046A23F4704343EA02327A
:1019700024F0A00343EA01118261016210BDFEE779
:101980000907090E002804DB00F1E02080F80014AC
:10199000704700F00F0000F1E02080F8141D704740
:1019A00008B5FFF75DF8FFF791FE1B4CA06940F00A
:1019B0002000A061A06900F020000090A06940F024
:1019C0000400A061A06900F004000090FFF7EEFDA4
:1019D000606940F0010060616069002200F0010070
:1019E000009011460C20FFF799F80C20FFF788F8BB
:1019F000FFF702FE0948FEF7FDFD084800213030E0
:101A0000FFF784FD054D064C30350448FEF734FDE4
:101A1000206029684863F8E70010024014000020A5
:101A2000000000200000000000000000010203048C
:101A300006070809541A00080000002014000000DE
:101A400028010008681A0008140000201C07000084
:101A50004401000800000000010000001000000028
:081A6000000000000024F40066
:04000005080000ED02
:00000001FF
